{
  "contractName": "Casino",
  "abi": [
    {
      "constant": true,
      "inputs": [],
      "name": "LIMIT_AMOUNT_BETS",
      "outputs": [
        {
          "name": "",
          "type": "uint256"
        }
      ],
      "payable": false,
      "stateMutability": "view",
      "type": "function",
      "signature": "0x1900874b"
    },
    {
      "constant": true,
      "inputs": [],
      "name": "numberOfBets",
      "outputs": [
        {
          "name": "",
          "type": "uint256"
        }
      ],
      "payable": false,
      "stateMutability": "view",
      "type": "function",
      "signature": "0x2ca8c6d3"
    },
    {
      "constant": true,
      "inputs": [],
      "name": "numberWinner",
      "outputs": [
        {
          "name": "",
          "type": "uint256"
        }
      ],
      "payable": false,
      "stateMutability": "view",
      "type": "function",
      "signature": "0x9a6a68e9"
    },
    {
      "constant": true,
      "inputs": [],
      "name": "minimumBet",
      "outputs": [
        {
          "name": "",
          "type": "uint256"
        }
      ],
      "payable": false,
      "stateMutability": "view",
      "type": "function",
      "signature": "0xc38a8afd"
    },
    {
      "constant": true,
      "inputs": [
        {
          "name": "",
          "type": "uint256"
        },
        {
          "name": "",
          "type": "uint256"
        }
      ],
      "name": "numberBetPlayers",
      "outputs": [
        {
          "name": "",
          "type": "address"
        }
      ],
      "payable": false,
      "stateMutability": "view",
      "type": "function",
      "signature": "0xcc5371bf"
    },
    {
      "constant": true,
      "inputs": [],
      "name": "maxAmountOfBets",
      "outputs": [
        {
          "name": "",
          "type": "uint256"
        }
      ],
      "payable": false,
      "stateMutability": "view",
      "type": "function",
      "signature": "0xe08a96cd"
    },
    {
      "constant": true,
      "inputs": [
        {
          "name": "",
          "type": "uint256"
        }
      ],
      "name": "players",
      "outputs": [
        {
          "name": "",
          "type": "address"
        }
      ],
      "payable": false,
      "stateMutability": "view",
      "type": "function",
      "signature": "0xf71d96cb"
    },
    {
      "constant": true,
      "inputs": [],
      "name": "totalBet",
      "outputs": [
        {
          "name": "",
          "type": "uint256"
        }
      ],
      "payable": false,
      "stateMutability": "view",
      "type": "function",
      "signature": "0xfe5e1853"
    },
    {
      "inputs": [
        {
          "name": "_minimumBet",
          "type": "uint256"
        },
        {
          "name": "_maxAmountOfBets",
          "type": "uint256"
        }
      ],
      "payable": false,
      "stateMutability": "nonpayable",
      "type": "constructor",
      "signature": "constructor"
    },
    {
      "constant": true,
      "inputs": [
        {
          "name": "player",
          "type": "address"
        }
      ],
      "name": "checkPlayerExists",
      "outputs": [
        {
          "name": "",
          "type": "bool"
        }
      ],
      "payable": false,
      "stateMutability": "view",
      "type": "function",
      "signature": "0x4081d916"
    },
    {
      "constant": false,
      "inputs": [
        {
          "name": "numberToBet",
          "type": "uint256"
        }
      ],
      "name": "bet",
      "outputs": [],
      "payable": true,
      "stateMutability": "payable",
      "type": "function",
      "signature": "0x7365870b"
    },
    {
      "constant": false,
      "inputs": [],
      "name": "generateNumberWinner",
      "outputs": [
        {
          "name": "",
          "type": "uint256"
        }
      ],
      "payable": false,
      "stateMutability": "nonpayable",
      "type": "function",
      "signature": "0x0a50e361"
    },
    {
      "constant": false,
      "inputs": [
        {
          "name": "_queryId",
          "type": "bytes32"
        },
        {
          "name": "_result",
          "type": "string"
        },
        {
          "name": "_proof",
          "type": "bytes"
        }
      ],
      "name": "__callback",
      "outputs": [],
      "payable": false,
      "stateMutability": "nonpayable",
      "type": "function",
      "signature": "0x38bbfa50"
    },
    {
      "constant": false,
      "inputs": [],
      "name": "distributePrizes",
      "outputs": [],
      "payable": false,
      "stateMutability": "nonpayable",
      "type": "function",
      "signature": "0x7ce52eb6"
    },
    {
      "constant": false,
      "inputs": [],
      "name": "resetData",
      "outputs": [],
      "payable": false,
      "stateMutability": "nonpayable",
      "type": "function",
      "signature": "0x478c4e0e"
    }
  ],
  "bytecode": "0x608060405267016345785d8a0000600155600a60045534801561002157600080fd5b50604051604080610a318339810180604052604081101561004157600080fd5b810190808051906020019092919080519060200190929190505050336000806101000a81548173ffffffffffffffffffffffffffffffffffffffff021916908373ffffffffffffffffffffffffffffffffffffffff16021790555060008211156100ad57816001819055505b6000811180156100be575060648111155b156100cb57806004819055505b5050610955806100dc6000396000f3fe6080604052600436106100d0576000357c0100000000000000000000000000000000000000000000000000000000900463ffffffff1680630a50e361146100d55780631900874b146101005780632ca8c6d31461012b57806338bbfa50146101565780634081d916146102bf578063478c4e0e146103285780637365870b1461033f5780637ce52eb61461036d5780639a6a68e914610384578063c38a8afd146103af578063cc5371bf146103da578063e08a96cd1461045f578063f71d96cb1461048a578063fe5e185314610505575b600080fd5b3480156100e157600080fd5b506100ea610530565b6040518082815260200191505060405180910390f35b34801561010c57600080fd5b50610115610547565b6040518082815260200191505060405180910390f35b34801561013757600080fd5b5061014061054c565b6040518082815260200191505060405180910390f35b34801561016257600080fd5b506102bd6004803603606081101561017957600080fd5b8101908080359060200190929190803590602001906401000000008111156101a057600080fd5b8201836020820111156101b257600080fd5b803590602001918460018302840111640100000000831117156101d457600080fd5b91908080601f016020809104026020016040519081016040528093929190818152602001838380828437600081840152601f19601f8201169050808301925050505050505091929192908035906020019064010000000081111561023757600080fd5b82018360208201111561024957600080fd5b8035906020019184600183028401116401000000008311171561026b57600080fd5b91908080601f016020809104026020016040519081016040528093929190818152602001838380828437600081840152601f19601f820116905080830192505050505050509192919290505050610552565b005b3480156102cb57600080fd5b5061030e600480360360208110156102e257600080fd5b81019080803573ffffffffffffffffffffffffffffffffffffffff16906020019092919050505061056d565b604051808215151515815260200191505060405180910390f35b34801561033457600080fd5b5061033d6105b8565b005b61036b6004803603602081101561035557600080fd5b81019080803590602001909291905050506105da565b005b34801561037957600080fd5b5061038261072b565b005b34801561039057600080fd5b50610399610835565b6040518082815260200191505060405180910390f35b3480156103bb57600080fd5b506103c461083b565b6040518082815260200191505060405180910390f35b3480156103e657600080fd5b5061041d600480360360408110156103fd57600080fd5b810190808035906020019092919080359060200190929190505050610841565b604051808273ffffffffffffffffffffffffffffffffffffffff1673ffffffffffffffffffffffffffffffffffffffff16815260200191505060405180910390f35b34801561046b57600080fd5b5061047461088e565b6040518082815260200191505060405180910390f35b34801561049657600080fd5b506104c3600480360360208110156104ad57600080fd5b8101908080359060200190929190505050610894565b604051808273ffffffffffffffffffffffffffffffffffffffff1673ffffffffffffffffffffffffffffffffffffffff16815260200191505060405180910390f35b34801561051157600080fd5b5061051a6108d2565b6040518082815260200191505060405180910390f35b600060045460035410151561054457600190505b90565b606481565b60035481565b6004546003541015156105685761056761072b565b5b505050565b600080600860008473ffffffffffffffffffffffffffffffffffffffff1673ffffffffffffffffffffffffffffffffffffffff16815260200190815260200160002054119050919050565b60006006816105c791906108d8565b5060006002819055506000600381905550565b6004546003541015156105ec57600080fd5b600015156105f93361056d565b151514151561060757600080fd5b600181101580156106195750600a8111155b151561062457600080fd5b600154341015151561063557600080fd5b80600860003373ffffffffffffffffffffffffffffffffffffffff1673ffffffffffffffffffffffffffffffffffffffff16815260200190815260200160002081905550600760008281526020019081526020016000203390806001815401808255809150509060018203906000526020600020016000909192909190916101000a81548173ffffffffffffffffffffffffffffffffffffffff021916908373ffffffffffffffffffffffffffffffffffffffff1602179055505060016003600082825401925050819055503460026000828254019250508190555060045460035410151561072857610726610530565b505b50565b6004546003541015156108335760006007600060055481526020019081526020016000208054905060025481151561075f57fe5b04905060008090505b6007600060055481526020019081526020016000208054905081101561082857600760006005548152602001908152602001600020818154811015156107aa57fe5b9060005260206000200160009054906101000a900473ffffffffffffffffffffffffffffffffffffffff1673ffffffffffffffffffffffffffffffffffffffff166108fc839081150290604051600060405180830381858888f1935050505015801561081a573d6000803e3d6000fd5b508080600101915050610768565b506108316105b8565b505b565b60055481565b60015481565b60076020528160005260406000208181548110151561085c57fe5b906000526020600020016000915091509054906101000a900473ffffffffffffffffffffffffffffffffffffffff1681565b60045481565b6006818154811015156108a357fe5b906000526020600020016000915054906101000a900473ffffffffffffffffffffffffffffffffffffffff1681565b60025481565b8154818355818111156108ff578183600052602060002091820191016108fe9190610904565b5b505050565b61092691905b8082111561092257600081600090555060010161090a565b5090565b9056fea165627a7a72305820606f4ed4cfe40e34042f521408cef87a566bf3215b119b2b940baf3836a896e40029",
  "source": "// May need to change to pragma solidity ^0.5.1;\npragma solidity ^0.5.0;\n\n// import \"github.com/oraclize/ethereum-api/blob/master/oraclizeAPI_0.5.sol\";\n\n/// @title Contract to bet Ether for a number and win randomly when the number of bets is met.\n/// Credit to Merunas Grincalaitis for the framework for this Smart Contract\n/// @author Calvin Chen\n\ncontract Casino {  //is usingOraclize {\n\taddress owner;\n\n\t// The minimum bet a user has to make to participate in the game\n\tuint public minimumBet = 100 finney; // Equal to 0.1 ether\n\n\t// The total amount of Ether bet for this current game\n\tuint public totalBet;\n\n\t// The total number of bets the users have made\n\tuint public numberOfBets;\n\n\t// The maximum amount of bets can be made for each game\n\tuint public maxAmountOfBets = 10;\n\n\t// The max amount of bets that cannot be exceeded to avoid excessive gas consumption\n\t// when distributing the prizes and restarting the game\n\tuint public constant LIMIT_AMOUNT_BETS = 100;\n\n\t// The number that won the last game\n\tuint public numberWinner;\n\n\t// Array of players\n\taddress payable [] public players;\n\n\t// Each number has an array of players. Associate each number with a bunch of players\n\tmapping(uint => address payable []) public numberBetPlayers;\n\n\t// The number that each player has bet for\n\tmapping(address => uint) playerBetsNumber;\n\n\t// Modifier to only allow the execution of functions when the bets are completed\n\tmodifier onEndGame(){\n\t\tif (numberOfBets >= maxAmountOfBets) {\n\t\t    _;\n\t\t}\n\t}\n\n\t/// @notice Constructor that's used to configure the minimum bet per game and the max amount of bets\n\t/// @param _minimumBet The minimum bet that each user has to make in order to participate in the game\n\t/// @param _maxAmountOfBets The max amount of bets that are required for each game\n\tconstructor (uint _minimumBet, uint _maxAmountOfBets) public {\n\t\towner = msg.sender;\n\n\t\tif (_minimumBet > 0) {\n\t\t    minimumBet = _minimumBet;\n\t\t}\n\t\t\n\t\tif (_maxAmountOfBets > 0 && _maxAmountOfBets <= LIMIT_AMOUNT_BETS) {\n\t\t    maxAmountOfBets = _maxAmountOfBets;\n\t\t}\n\n\t\t// Set the proof of oraclize in order to make secure random number generations\n// \t\toraclize_setProof(proofType_Android | proofType_Ledger);\n\t}\n\n\t/// @notice Check if a player exists in the current game\n\t/// @param player The address of the player to check\n\t/// @return bool Returns true is it exists or false if it doesn't\n\tfunction checkPlayerExists(address player) public view returns(bool){\n\t    return playerBetsNumber[player] > 0;\n\t}\n\t\n\t/// @notice To bet for a number by sending Ether\n\t/// @param numberToBet The number that the player wants to bet for. Must be between 1 and 10 both inclusive\n\tfunction bet(uint numberToBet) public payable{\n\n\t\t// Check that the max amount of bets hasn't been met yet\n\t\trequire(numberOfBets < maxAmountOfBets);\n\n\t\t// Check that the player doesn't exists\n\t\trequire(checkPlayerExists(msg.sender) == false);\n\n\t\t// Check that the number to bet is within the range\n\t\trequire(numberToBet >= 1 && numberToBet <= 10);\n\n\t\t// Check that the amount paid is bigger or equal the minimum bet\n\t\trequire(msg.value >= minimumBet);\n\n\t\t// Set the number bet for that player\n\t\tplayerBetsNumber[msg.sender] = numberToBet;\n\n\t\t// The player msg.sender has bet for that number\n\t\tnumberBetPlayers[numberToBet].push(msg.sender);\n\n\t\tnumberOfBets += 1;\n\t\ttotalBet += msg.value;\n\n\t\tif (numberOfBets >= maxAmountOfBets) {\n\t\t    generateNumberWinner();\n\t\t}\n\t}\n\n\t/// @notice Generates a random number between 1 and 10 both inclusive.\n\t/// Must be payable because oraclize needs gas to generate a random number.\n\t/// Can only be executed when the game ends.\n\tfunction generateNumberWinner() public onEndGame returns (uint) {\n\n// \t\tstring memory query = \"https://www.random.org/integers/?num=1&min=1&max=10&col=1&base=10&format=plain&rmd=new\";\n// \t\tbytes32 queryId = oraclize_query(\"URL\", query);\n// \t\toraclize_proofShield_commitment[queryId] = keccak256(sha256(query), proofType_Android);\n\t\t\n// \t\tuint numberRandomBytes = 7;\n// \t\tuint delay = 0;\n// \t\tuint callbackGas = 200000;\n\t\treturn 1;\n\n\t\t// bytes32 queryId = oraclize_newRandomDSQuery(delay, numberRandomBytes, callbackGas);\n\t}\n\n\tfunction sliceUint (bytes memory bs, uint start) internal pure returns (uint) {\n\t    \n\t    require(bs.length >= start + 32, \"slicing out of range\");\n\t    uint x;\n\t    assembly {\n\t        x := mload(add(bs, add(0x20, start)))\n\t    }\n\t    return x;\n\t}\n\n\t/// @notice Callback function that gets called by oraclize when the random number is generated\n\t/// @param _queryId The query id that was generated to proofVerify\n\t/// @param _result String that contains the number generated\n\t/// @param _proof A string with a proof code to verify the authenticity of the number generation\n\tfunction __callback(bytes32 _queryId, string memory _result, bytes memory _proof) public onEndGame {\n\t// oraclize_randomDS_proofVerify(_queryId, _result, _proof) public onEndGame {\n\n\t\t// Checks that the sender of this callback was in fact oraclize\n// \t\trequire(msg.sender == oraclize_cbAddress());\n// \t\tuint newUint = sliceUint(abi.encode(_result), 0);\n// \t\tnumberWinner = (uint(newUint)%10+1);\n        // if (oraclize_proofShield_proofVerify__returnCode(_queryId, _result, _proof) == 0) {\n            // randomInt = parseInt(_result);\n        // }\n\t\tdistributePrizes();\n\t}\n\n\t/// @notice Sends the corresponding Ether to each winner then deletes all the\n\t/// players for the next game and resets the `totalBet` and `numberOfBets`\n\tfunction distributePrizes() onEndGame public {\n\t\tuint winnerEtherAmount = totalBet / numberBetPlayers[numberWinner].length; // How much each winner gets\n\n\t\t// Loop through all the winners to send the corresponding prize for each one\n\t\tfor (uint i = 0; i < numberBetPlayers[numberWinner].length; i++){\n\t\t    numberBetPlayers[numberWinner][i].transfer(winnerEtherAmount);\n\t\t}\n\n\t\tresetData();\n\t}\n\n\tfunction resetData() public {\n\t   players.length = 0; // Delete all the players array\n\t   totalBet = 0;\n\t   numberOfBets = 0;\n\t}\n}",
  "sourcePath": "/Users/calvin/Desktop/Dapp-Development/casino-ethereum/contracts/Casino.sol",
  "compiler": {
    "name": "solc",
    "version": "0.5.0+commit.1d4f565a.Emscripten.clang"
  },
  "schemaVersion": "3.0.1",
  "updatedAt": "2019-03-04T00:04:08.870Z",
  "devdoc": {
    "author": "Calvin Chen",
    "methods": {
      "__callback(bytes32,string,bytes)": {
        "params": {
          "_proof": "A string with a proof code to verify the authenticity of the number generation",
          "_queryId": "The query id that was generated to proofVerify",
          "_result": "String that contains the number generated"
        }
      },
      "bet(uint256)": {
        "params": {
          "numberToBet": "The number that the player wants to bet for. Must be between 1 and 10 both inclusive"
        }
      },
      "checkPlayerExists(address)": {
        "params": {
          "player": "The address of the player to check"
        },
        "return": "bool Returns true is it exists or false if it doesn't"
      },
      "constructor": {
        "params": {
          "_maxAmountOfBets": "The max amount of bets that are required for each game",
          "_minimumBet": "The minimum bet that each user has to make in order to participate in the game"
        }
      }
    },
    "title": "Contract to bet Ether for a number and win randomly when the number of bets is met. Credit to Merunas Grincalaitis for the framework for this Smart Contract"
  },
  "userdoc": {
    "methods": {
      "__callback(bytes32,string,bytes)": {
        "notice": "Callback function that gets called by oraclize when the random number is generated"
      },
      "bet(uint256)": {
        "notice": "To bet for a number by sending Ether"
      },
      "checkPlayerExists(address)": {
        "notice": "Check if a player exists in the current game"
      },
      "constructor": "Constructor that's used to configure the minimum bet per game and the max amount of bets",
      "distributePrizes()": {
        "notice": "Sends the corresponding Ether to each winner then deletes all the players for the next game and resets the `totalBet` and `numberOfBets`"
      },
      "generateNumberWinner()": {
        "notice": "Generates a random number between 1 and 10 both inclusive. Must be payable because oraclize needs gas to generate a random number. Can only be executed when the game ends."
      }
    }
  }
}